:020000040000FA
:100000000C945E000C9486000C9486000C94860080
:100010000C9486000C9486000C9486000C94860048
:100020000C9486000C9486000C9486000C94860038
:100030000C9486000C9486000C9486000C94860028
:100040000C94D5040C9486000C94A3040C947D04A9
:100050000C9486000C9486000C9486000C94860008
:100060000C9486000C9486000000000024002700F9
:100070002A0000000008000201000003040700003D
:10008000000000000000010204081020408001026E
:1000900004081020010204081020000000002500C0
:1000A00028002B00040404040404040402020202D5
:1000B00002020303030303031F05DA0811241FBE12
:1000C000CFEFD8E0DEBFCDBF22E0A8E4B1E001C0B1
:1000D0001D92A737B207E1F711E0A0E0B1E0E4ED2F
:1000E000F4E102C005900D92A834B107D9F710E0F1
:1000F000CDE5D0E004C02197FE010E943209CC3545
:10010000D107C9F70E9432060C945D0A0C940000D6
:100110008F929F92AF92BF92CF92DF92EF92FF9217
:10012000CF9320915F023091600282179307E8F528
:100130004B01AA24BB24C82DC52ED62EE72EFF24A2
:10014000BC2DA42F20916502222361F0829E4001E4
:100150001124C92D2C9D60011124BD2D249FF00177
:100160001124AF2FE0916B02E0906602F0906702DD
:1001700030916802E31323C09C01220F331F820FCA
:10018000931F8E0D9F1DE0916802E80FF92FF11D5E
:10019000C083E0916902E80FF92FF11DB08320912F
:1001A0006A02820F911DFC01A083CF91FF90EF9016
:1001B000DF90CF90BF90AF909F908F900895880F61
:1001C000991F880F991F8E0D9F1D472F5527662752
:1001D0007727222349F030E0249F7001259FF00CFF
:1001E000349FF00C11244F2DE80FF92FF11D40839F
:1001F000CACFCF92DF92EF92FF920F931F93CF93CC
:10020000DF9300915F02109160020115110569F002
:100210006B017C01D0E0C0E0B701A601CE010E94D5
:10022000880021960C171D07B9F7DF91CF911F9118
:100230000F91FF90EF90DF90CF900895AF92BF9213
:10024000CF92DF92EF92FF920F931F93CF93DF93A2
:100250006C017B018B01040F151FEB015E01AE18D1
:10026000BF08C017D10759F06991D601ED91FC91F3
:100270000190F081E02DC6010995892B79F7C50120
:10028000DF91CF911F910F91FF90EF90DF90CF9072
:10029000BF90AF900895FC01538D448D252F30E021
:1002A000842F90E0821B930B541710F0CF96089583
:1002B00001970895FC01918D828D981761F0A28DB0
:1002C000AE0FBF2FB11D5D968C91928D9F5F9F7376
:1002D000928F90E008958FEF9FEF0895FC01918D2C
:1002E000828D981731F0828DE80FF11D858D90E099
:1002F00008958FEF9FEF0895FC01918D228D892F36
:1003000090E0805C9F4F821B91098F73992708951D
:100310008AE591E00E947C0121E0892B09F420E02C
:10032000822F089580E090E0892B29F00E948801B7
:1003300081110C9400000895FC01A48DA80FB92F21
:10034000B11DA35ABF4F2C91848D90E001968F73FD
:100350009927848FA689B7892C93A089B1898C911C
:10036000837080648C93938D848D981306C002886B
:10037000F389E02D80818F7D80830895EF92FF9235
:100380000F931F93CF93DF93EC0181E0888F9B8DB8
:100390008C8D98131AC0E889F989808185FF15C072
:1003A0009FB7F894EE89FF896083E889F989808195
:1003B0008370806480839FBF81E090E0DF91CF9164
:1003C0001F910F91FF90EF900895F62E0B8D10E086
:1003D0000F5F1F4F0F731127E02E8C8D8E110CC0F5
:1003E0000FB607FCFACFE889F989808185FFF5CF40
:1003F000CE010E949C01F1CFEB8DEC0FFD2FF11D82
:10040000E35AFF4FF0829FB7F8940B8FEA89FB897C
:1004100080818062CFCFCF93DF93EC01888D8823DA
:10042000B9F0AA89BB89E889F9898C9185FD03C057
:10043000808186FD0DC00FB607FCF7CF8C9185FF3C
:10044000F2CF808185FFEDCFCE010E949C01E9CFE4
:10045000DF91CF91089590E0FC01EE58FF4F249179
:10046000FC01EA57FF4F3491FC01EC55FF4FE4913A
:10047000EE23C9F0222339F0233001F1A8F4213012
:1004800019F1223029F1F0E0EE0FFF1FE656FF4F81
:10049000A591B4918FB7F894EC91611126C0309575
:1004A0003E233C938FBF08952730A9F02830C9F030
:1004B000243049F7809180008F7D03C080918000B7
:1004C0008F7780938000DFCF84B58F7784BDDBCFBB
:1004D00084B58F7DFBCF8091B0008F778093B00083
:1004E000D2CF8091B0008F7DF9CF3E2BDACFCF9362
:1004F000DF9390E0FC01EA57FF4F24918C559F4F0A
:10050000FC0184918823D1F090E0880F991FFC01B1
:10051000E859FF4FA591B491FC01E656FF4FC591F4
:10052000D49161110EC09FB7F8948C91E22FE095A1
:100530008E238C932881E223E8839FBFDF91CF91A4
:1005400008958FB7F894EC91E22BEC938FBFF6CF20
:100550003FB7F89480914D0190914E01A0914F01C9
:10056000B091500126B5A89B05C02F3F19F0019608
:10057000A11DB11D3FBFBA2FA92F982F8827BC01FD
:10058000CD01620F711D811D911D42E0660F771F25
:10059000881F991F4A95D1F708950F931F93CF9302
:1005A000DF93CDB7DEB729970FB6F894DEBF0FBE45
:1005B000CDBF8091660290916702892B09F47CC0BF
:1005C0000E94A80200916C0210916D0220916E02AF
:1005D00030916F02601771078207930740F46093B0
:1005E0006C0270936D0280936E0290936F02009183
:1005F0006C0210916D0220916E0230916F02601BAF
:10060000710B820B930B6C32714081059105C0F226
:10061000F89480916102909162029A838983E091BB
:100620006602F0916702DF011196808189879091BF
:100630005D02E0917002F091710280917202992343
:1006400009F445C09081982B9887908180958923E3
:100650008F838F818C8388E08B8358856F81498558
:100660003B812C8189819A81508347FD252F3A95C2
:100670002083262F39F0441F00C000006083000053
:1006800000C0F2CF38E04D9160830000019761F720
:10069000F0937102E093700249873B832C839A8325
:1006A000898378940E94A80260936C0270936D0213
:1006B00080936E0290936F0229960FB6F894DEBF76
:1006C0000FBECDBFDF91CF911F910F910895908103
:1006D000982B98879081809589238F838F818E8333
:1006E00088E08D8358856F8149853D812E81898180
:1006F0009A81508347FD252F00C000C0208300C091
:1007000000C000C000C000C060830000262F3A95E2
:1007100041F0441F000000C000C000C000C000C085
:10072000E8CF38E04D9100C0608300C0019709F721
:10073000F0937102E093700249873D832E83AFCF1F
:100740008F929F92AF92BF92CF92DF92EF92FF92E1
:100750004B015C010E94A8026B017C010E94A8026F
:100760006C197D098E099F09683E734081059105CA
:10077000A8F321E0821A9108A108B10888EEC80EFA
:1007800083E0D81EE11CF11C81149104A104B10482
:1007900029F7FF90EF90DF90CF90BF90AF909F90A0
:1007A0008F9008952FB7F8946091490170914A0194
:1007B00080914B0190914C012FBF0895FC01019055
:1007C0000020E9F73197AF01481B590BBC018AE5BE
:1007D00091E00C941E018F929F92AF92BF920F9363
:1007E0001F93CF93DF93CDB7DEB7A1970FB6F894E1
:1007F000DEBF0FBECDBF19A2423008F44AE08E0121
:100800000F5D1F4F842E912CB12CA12CA5019401BA
:100810000E941009E62FB901CA01EA30F4F4E05D44
:10082000D801EE938D01232B242B252B79F790E013
:1008300080E0109719F0CD010E94DE03A1960FB65B
:10084000F894DEBF0FBECDBFDF91CF911F910F9106
:10085000BF90AF909F908F900895E95CE1CFEF92A9
:10086000FF920F931F93CF93DF9300D000D0CDB7AB
:10087000DEB78AE591E00E945A018AE591E00E9484
:100880005A018E010F5F1F4F78018A3341F0F80142
:1008900081938F018AE591E00E945A01F6CFC7014A
:1008A0000E94EA08182F8AE591E00E945A018053BD
:1008B000990B8230910520F4682F812F0E942B0222
:1008C0008AE591E00E945A018A3011F08D30C1F71B
:1008D0008AE591E00E946E018A3021F48AE591E078
:1008E0000E945A010F900F900F900F90DF91CF91BF
:1008F0001F910F91FF90EF9008951F920F920FB6E6
:100900000F9211242F933F934F935F936F937F9395
:100910008F939F93AF93BF93EF93FF938AE591E0FB
:100920000E949C01FF91EF91BF91AF919F918F9198
:100930007F916F915F914F913F912F910F900FBEDB
:100940000F901F9018951F920F920FB60F921124BF
:100950002F938F939F93EF93FF93E0916A01F09110
:100960006B018081E0917001F091710182FD1BC0EB
:100970009081809173018F5F8F7320917401821732
:1009800041F0E0917301F0E0E65AFE4F958F8093BD
:100990007301FF91EF919F918F912F910F900FBE57
:1009A0000F901F9018958081F4CF1F920F920FB671
:1009B0000F9211242F933F938F939F93AF93BF93E5
:1009C0008091490190914A01A0914B01B0914C0155
:1009D0003091480123E0230F2D3758F50196A11DD2
:1009E000B11D209348018093490190934A01A0933F
:1009F0004B01B0934C0180914D0190914E01A0911B
:100A00004F01B09150010196A11DB11D80934D0180
:100A100090934E01A0934F01B0935001BF91AF91BD
:100A20009F918F913F912F910F900FBE0F901F902C
:100A3000189526E8230F0296A11DB11DD2CF109262
:100A40005D0110925C0188EE93E0A0E0B0E080933D
:100A50005E0190935F01A0936001B09361018AE011
:100A600091E090935B0180935A0185EC90E0909324
:100A700067018093660184EC90E090936901809314
:100A8000680180EC90E090936B0180936A0181ECA7
:100A900090E090936D0180936C0182EC90E09093D4
:100AA0006F0180936E0186EC90E0909371018093CA
:100AB00070011092730110927401109275011092DE
:100AC00076011092FD011092FE011092FF0110922A
:100AD0000002109201021092020210920302109280
:100AE0000402109205021092060210920702109260
:100AF00008021092090210920A0210920B02109240
:100B00000C0210925E021092650210926C0210921A
:100B10006D0210926E0210926F0281E080936B0260
:100B2000809368021092690292E090936A02809327
:100B30005D0288E190E090936202809361020E94DE
:100B400038099093670280936602009709F481C088
:100B500028E1FC0111922A95E9F788E090E0909352
:100B6000600280935F0286E090E09093640280933D
:100B7000630280915E02882341F061E086E00E947A
:100B8000770260E086E00E942B02EAEAF0E0E4915E
:100B9000F0E0EE0FFF1FE656FF4F85919491909382
:100BA000710280937002ECE8F0E0E491E09372024D
:100BB00080E098E7A0E0B0E080933D0290933E0291
:100BC000A0933F02B093400280934102909342026F
:100BD000A0934302B093440280934502909346024F
:100BE000A0934702B093480280E09CE3ACE3B0E0FE
:100BF0008093490290934A02A0934B02B0934C0217
:100C000080934D0290934E02A0934F02B0935002F6
:100C100080E090E0A8E7B0E0809351029093520208
:100C2000A0935302B09354028093550290935602BE
:100C3000A0935702B093580288E790E0A0E0B0E09C
:100C40008093590290935A02A0935B02B0935C0286
:100C50000895109262021092610210926002109246
:100C60005F0281CF789484B5826084BD84B5816051
:100C700084BD85B5826085BD85B5816085BD809167
:100C80006E00816080936E001092810080918100DF
:100C900082608093810080918100816080938100D7
:100CA000809180008160809380008091B100846099
:100CB0008093B1008091B00081608093B0008091FA
:100CC0007A00846080937A0080917A0082608093B9
:100CD0007A0080917A00816080937A0080917A0016
:100CE000806880937A001092C100109239021092AD
:100CF0003A0210923B0210923C021092F9011092BB
:100D0000FA011092FB011092FC010E94D2036B01C8
:100D10007C014B015C0128EB820E2BE0921EA11C92
:100D2000B11C0E94D2036C157D058E059F0528F02D
:100D300086169706A806B906A0F768EE73E080E06D
:100D400090E00E94A003E0916A01F0916B0182E0C3
:100D50008083E0916601F09167011082E091680163
:100D6000F091690180E1808310927201E0916E013F
:100D7000F0916F0186E08083E0916C01F0916D014C
:100D8000808180618083E0916C01F0916D018081B0
:100D900088608083E0916C01F0916D0180818068B2
:100DA0008083E0916C01F0916D0180818F7D808363
:100DB0000E94D2036093F9017093FA018093FB01C2
:100DC0009093FC0188E191E00E94DE030E94D2032F
:100DD0006B017C014B015C013AE0830E911CA11C6C
:100DE000B11C0E94D2036C157D058E059F0528F06D
:100DF00086169706A806B906A0F781E080930D0233
:100E00000E94D2036093F9017093FA018093FB0171
:100E10009093FC0189E291E00E94DE0380916302DD
:100E20009091640297FD08C061E00E94770260E043
:100E3000809163020E942B0281E080935E0294EF16
:100E4000892E99249394A12CB12C332433940E949D
:100E5000D203672B682B692B09F4EFC00E94D203E1
:100E6000009156011091570120915801309159017C
:100E7000601771078207930708F427C10091560194
:100E80001091570120915801309159016B017C015B
:100E9000C01AD10AE20AF30A97018601083E1340FC
:100EA0002105310508F4D1C06093560170935701B4
:100EB0008093580190935901809205029092060206
:100EC000A0920702B09208021092090210920A0240
:100ED00010920B0210920C028091FD019091FE0184
:100EE000A091FF01B0910002809301029093020251
:100EF000A0930302B09304020E94D2036093FD0109
:100F00007093FE018093FF01909300028AE591E0C7
:100F10000E946E01843611F40E942F040E94D203B5
:100F20006093F9017093FA018093FB019093FC01A7
:100F30000E94D2036B017C0180E391E00E94DE03FA
:100F40004AE061E070E080E090E00E94EB0387E31C
:100F500091E00E94DE034AE0C701B6010E94EB0364
:100F600089E391E00E94DE038091FD019091FE01F2
:100F7000A091FF01B0910002A7019601281B390B37
:100F80004A0B5B0BCA01B9014AE00E94EB0389E3FB
:100F900091E00E94DE036091FD017091FE0180915D
:100FA000FF01909100020091010210910202209134
:100FB000030230910402601B710B820B930B4AE019
:100FC0000E94EB038BE391E00E94DE030E94D203B8
:100FD0004AE00E94EB038DE391E00E94DE0384E48B
:100FE00091E00E94DE030E94D2032B013C017C01B0
:100FF0006B0135E0C30ED11CE11CF11C0E94D20331
:10100000641575058605970528F0C616D706E80607
:10101000F906A0F78AE591E00E946E01843611F48A
:101020000E942F040E94D2036093FD017093FE0181
:101030008093FF019093000208C00E94D2036230A7
:1010400071058105910508F009CF80915501811145
:101050002FC0C12CD12C7601809151019091520169
:10106000A0915301B09154018C0D9D1DAE1DBF1D6B
:101070008093510190935201A0935301B093540176
:1010800084319105A105B10548F1109251011092EA
:10109000520110925301109254012FEFC21AD20A3A
:1010A000E20AF20A34E6C316D104E104F104A1F61F
:1010B00040E050E0452B09F4CACE0E948801882305
:1010C00009F4C5CE0E940000C2CE60935601709311
:1010D00057018093580190935901D0CE0697A105EE
:1010E000B105D8F28DE3682E82E0782E8301D0E03E
:1010F000C0E0F80141915191619171918F01CE0150
:101100000E9488000E94CD0262E370E080E090E0DF
:101110000E94A0032196C830D10559F7CAE0D0E05B
:1011200068E770E080E090E00E94F9000E94CD0244
:1011300064E170E080E090E00E94A00360E070E075
:10114000CB010E94F9000E94CD0264E170E080E0D2
:1011500090E00E94A003219719F7D0E0C0E0F301CE
:1011600041915191619171913F01CE010E9488009E
:101170000E94CD022196C830D10589F7C7E0D0E0A2
:1011800040E050E0BA01CE010E9488000E94CD02EA
:1011900062E370E080E090E00E94A003219780F776
:1011A0003092550160E070E0CB010E94F9000E948E
:1011B000CD0273CF80916602909167020E94D4099C
:1011C000809163029091640297FD03C060E00C94EB
:1011D00077020895FC0188279927E894219120320D
:1011E000E9F3293010F02E30C8F32B3241F02D32C4
:1011F00039F4689404C00E940809820F911D21915E
:1012000020532A30C0F31EF4909581959F4F089586
:101210007AE0979F902D879F802D910D112408953E
:10122000A1E21A2EAA1BBB1BFD010DC0AA1FBB1FEA
:10123000EE1FFF1FA217B307E407F50720F0A21B5C
:10124000B30BE40BF50B661F771F881F991F1A94C9
:1012500069F760957095809590959B01AC01BD01F3
:10126000CF010895EE0FFF1F0590F491E02D099432
:101270000F931F93CF93DF938230910510F482E098
:1012800090E0E0917502F091760230E020E0B0E06D
:10129000A0E0309799F42115310509F44AC0281BC4
:1012A000390B24303105D8F58A819B816115710590
:1012B00089F1FB0193838283FE0111C0408151813A
:1012C0000281138148175907E0F04817590799F42C
:1012D000109761F012960C93129713961C93329606
:1012E000CF01DF91CF911F910F9108950093750267
:1012F00010937602F4CF2115310551F042175307B0
:1013000038F0A901DB019A01BD01DF01F801C1CF6D
:10131000EF01F9CF9093760280937502CDCFFE0155
:10132000E20FF31F8193919322503109398328836F
:10133000D7CF2091730230917402232B41F4209176
:1013400002013091030130937402209373022091C3
:101350000001309101012115310541F42DB73EB74F
:101360004091040150910501241B350BE09173025B
:10137000F0917402E217F307A0F42E1B3F0B28171D
:10138000390778F0AC014E5F5F4F2417350748F0FE
:101390004E0F5F1F50937402409373028193919399
:1013A0009FCFF0E0E0E09CCFCF93DF930097E9F090
:1013B000FC01329713821282A0917502B0917602DD
:1013C000ED0130E020E01097A1F420813181820FFF
:1013D000931F20917302309174022817390709F086
:1013E00061C0F0937402E0937302DF91CF9108958E
:1013F000EA01CE17DF07E8F54A815B819E014115BE
:101400005105B1F7E901FB83EA8349915991C40F72
:10141000D51FEC17FD0761F4808191810296840F3E
:10142000951FE90199838883828193819B838A83B5
:10143000F0E0E0E012968D919C9113970097B9F53A
:101440002D913C911197CD010296820F931F20910F
:101450007302309174022817390739F6309751F525
:101460001092760210927502B0937402A0937302E8
:10147000BCCFD383C28340815181840F951FC8178D
:10148000D90761F44E5F5F4F88819981480F591FDA
:10149000518340838A819B81938382832115310507
:1014A00009F0B0CFF0937602E09375029ECFFD0174
:1014B000DC01C0CF13821282D7CF10E0CDE5D0E09F
:1014C00004C0FE010E9432092196CE35D107C9F72A
:1014D000F894FFCF00007702800000000000BE01FA
:1014E0001E014B010B027C015A016E01564D445006
:1014F000565F317C315F564D4450560A00564D447C
:1015000050525F00564D4450455F003A323A007CDD
:0C151000005F564D445045000D0A0000DD
:107E0000112484B714BE81FFF0D085E080938100F7
:107E100082E08093C00088E18093C10086E0809377
:107E2000C20080E18093C4008EE0C9D0259A86E02C
:107E300020E33CEF91E0309385002093840096BBD3
:107E4000B09BFECF1D9AA8958150A9F7CC24DD24C4
:107E500088248394B5E0AB2EA1E19A2EF3E0BF2EE7
:107E6000A2D0813461F49FD0082FAFD0023811F036
:107E7000013811F484E001C083E08DD089C08234E0
:107E800011F484E103C0853419F485E0A6D080C0E4
:107E9000853579F488D0E82EFF2485D0082F10E0AE
:107EA000102F00270E291F29000F111F8ED06801E7
:107EB0006FC0863521F484E090D080E0DECF843638
:107EC00009F040C070D06FD0082F6DD080E0C81688
:107ED00080E7D80618F4F601B7BEE895C0E0D1E017
:107EE00062D089930C17E1F7F0E0CF16F0E7DF06D8
:107EF00018F0F601B7BEE89568D007B600FCFDCFD4
:107F0000A601A0E0B1E02C9130E011968C91119780
:107F100090E0982F8827822B932B1296FA010C0160
:107F200087BEE89511244E5F5F4FF1E0A038BF0790
:107F300051F7F601A7BEE89507B600FCFDCF97BE46
:107F4000E89526C08437B1F42ED02DD0F82E2BD052
:107F50003CD0F601EF2C8F010F5F1F4F84911BD097
:107F6000EA94F801C1F70894C11CD11CFA94CF0C13
:107F7000D11C0EC0853739F428D08EE10CD085E9AC
:107F80000AD08FE07ACF813511F488E018D01DD067
:107F900080E101D065CF982F8091C00085FFFCCF94
:107FA0009093C60008958091C00087FFFCCF809118
:107FB000C00084FD01C0A8958091C6000895E0E648
:107FC000F0E098E1908380830895EDDF803219F02E
:107FD00088E0F5DFFFCF84E1DECF1F93182FE3DFCA
:107FE0001150E9F7F2DF1F91089580E0E8DFEE27F6
:047FF000FF270994CA
:027FFE00040479
:00000001FF
