:100000000C945E000C9486000C9486000C94860080
:100010000C9486000C9486000C9486000C94860048
:100020000C9486000C9486000C9486000C94860038
:100030000C9486000C9486000C9486000C94860028
:100040000C9479050C9486000C9447050C942105BA
:100050000C9486000C9486000C9486000C94860008
:100060000C9486000C9486000000000024002700F9
:100070002A0000000008000201000003040700003D
:10008000000000000000010204081020408001026E
:1000900004081020010204081020000000002500C0
:1000A00028002B00040404040404040402020202D5
:1000B0000202030303030303C3053C0A11241FBE0A
:1000C000CFEFD8E0DEBFCDBF23E0A2E2B2E001C0B7
:1000D0001D92A035B207E1F712E0A0E0B1E0E2E343
:1000E000FAE102C005900D92A232B107D9F710E0F3
:1000F000CDE5D0E004C02197FE010E94140BCC3561
:10010000D107C9F70E94D6060C940C0D0C94000080
:100110008F929F92AF92BF92CF92DF92EF92FF9217
:10012000CF934B01AA24BB24C82DC52ED62EE72E73
:10013000FF24BC2DA42F20913E03222361F0829E38
:1001400040011124C92D2C9D60011124BD2D249F37
:10015000F0011124AF2FE0914403E0903F03F090B1
:10016000400330914103E31323C09C01220F331F4E
:10017000820F931F8E0D9F1DE0914103E80FF92F11
:10018000F11DC083E0914203E80FF92FF11DB08308
:1001900020914303820F911DFC01A083CF91FF901A
:1001A000EF90DF90CF90BF90AF909F908F90089589
:1001B000880F991F880F991F8E0D9F1D472F552758
:1001C00066277727222349F030E0249F7001259F7E
:1001D000F00C349FF00C11244F2DE80FF92FF11D76
:1001E0004083CACFCF92DF92EF92FF920F931F937B
:1001F000CF93DF9300913803109139030115110556
:10020000A1F06B017C01D0E0C0E0809138039091B7
:100210003903C817D90728F4B701A601CE010E94F7
:10022000880021960C171D0781F7DF91CF911F9150
:100230000F91FF90EF90DF90CF900895AF92BF9213
:10024000CF92DF92EF92FF920F931F93CF93DF93A2
:100250006C017B018B01040F151FEB015E01AE18D1
:10026000BF08C017D10759F06991D601ED91FC91F3
:100270000190F081E02DC6010995892B79F7C50120
:10028000DF91CF911F910F91FF90EF90DF90CF9072
:10029000BF90AF900895FC01538D448D252F30E021
:1002A000842F90E0821B930B541710F0CF96089583
:1002B00001970895FC01918D828D981761F0A28DB0
:1002C000AE0FBF2FB11D5D968C91928D9F5F9F7376
:1002D000928F90E008958FEF9FEF0895FC01918D2C
:1002E000828D981731F0828DE80FF11D858D90E099
:1002F00008958FEF9FEF0895FC01918D228D892F36
:1003000090E0805C9F4F821B91098F73992708951D
:1003100083E392E00E947C0121E0892B09F420E034
:10032000822F089580E090E0892B29F00E948801B7
:1003300081110C9400000895FC01A48DA80FB92F21
:10034000B11DA35ABF4F2C91848D90E001968F73FD
:100350009927848FA689B7892C93A089B1898C911C
:10036000837080648C93938D848D981306C002886B
:10037000F389E02D80818F7D80830895EF92FF9235
:100380000F931F93CF93DF93EC0181E0888F9B8DB8
:100390008C8D98131AC0E889F989808185FF15C072
:1003A0009FB7F894EE89FF896083E889F989808195
:1003B0008370806480839FBF81E090E0DF91CF9164
:1003C0001F910F91FF90EF900895F62E0B8D10E086
:1003D0000F5F1F4F0F731127E02E8C8D8E110CC0F5
:1003E0000FB607FCFACFE889F989808185FFF5CF40
:1003F000CE010E949C01F1CFEB8DEC0FFD2FF11D82
:10040000E35AFF4FF0829FB7F8940B8FEA89FB897C
:1004100080818062CFCFCF93DF93EC01888D8823DA
:10042000B9F0AA89BB89E889F9898C9185FD03C057
:10043000808186FD0DC00FB607FCF7CF8C9185FF3C
:10044000F2CF808185FFEDCFCE010E949C01E9CFE4
:10045000DF91CF91089590E0FC01EE58FF4F249179
:10046000FC01EA57FF4F3491FC01EC55FF4FE4913A
:10047000EE23C9F0222339F0233001F1A8F4213012
:1004800019F1223029F1F0E0EE0FFF1FE656FF4F81
:10049000A591B4918FB7F894EC91611126C0309575
:1004A0003E233C938FBF08952730A9F02830C9F030
:1004B000243049F7809180008F7D03C080918000B7
:1004C0008F7780938000DFCF84B58F7784BDDBCFBB
:1004D00084B58F7DFBCF8091B0008F778093B00083
:1004E000D2CF8091B0008F7DF9CF3E2BDACFCF9362
:1004F000DF9390E0FC01EA57FF4F24918C559F4F0A
:10050000FC0184918823D1F090E0880F991FFC01B1
:10051000E859FF4FA591B491FC01E656FF4FC591F4
:10052000D49161110EC09FB7F8948C91E22FE095A1
:100530008E238C932881E223E8839FBFDF91CF91A4
:1005400008958FB7F894EC91E22BEC938FBFF6CF20
:100550003FB7F8948091270290912802A091290238
:10056000B0912A0226B5A89B05C02F3F19F001962D
:10057000A11DB11D3FBFBA2FA92F982F8827BC01FD
:10058000CD01620F711D811D911D42E0660F771F25
:10059000881F991F4A95D1F708950F931F93CF9302
:1005A000DF93CDB7DEB729970FB6F894DEBF0FBE45
:1005B000CDBF80913F0390914003892B09F47CC00B
:1005C0000E94A80200914503109146032091470321
:1005D00030914803601771078207930740F46093D6
:1005E000450370934603809347039093480300911B
:1005F0004503109146032091470330914803601B47
:10060000710B820B930B6C32714081059105C0F226
:10061000F89480913A0390913B039A838983E09107
:100620003F03F0914003DF0111968081898790910B
:100630003603E0914903F0914A0380914B039923DB
:1006400009F445C09081982B9887908180958923E3
:100650008F838F818C8388E08B8358856F81498558
:100660003B812C8189819A81508347FD252F3A95C2
:100670002083262F39F0441F00C000006083000053
:1006800000C0F2CF38E04D9160830000019761F720
:10069000F0934A03E093490349873B832C839A8371
:1006A000898378940E94A80260934503709346035F
:1006B000809347039093480329960FB6F894DEBFC2
:1006C0000FBECDBFDF91CF911F910F910895908103
:1006D000982B98879081809589238F838F818E8333
:1006E00088E08D8358856F8149853D812E81898180
:1006F0009A81508347FD252F00C000C0208300C091
:1007000000C000C000C000C060830000262F3A95E2
:1007100041F0441F000000C000C000C000C000C085
:10072000E8CF38E04D9100C0608300C0019709F721
:10073000F0934A03E093490349873D832E83AFCF6B
:100740008F929F92AF92BF92CF92DF92EF92FF92E1
:100750004B015C010E94A8026B017C010E94A8026F
:100760006C197D098E099F09683E734081059105CA
:10077000A8F321E0821A9108A108B10888EEC80EFA
:1007800083E0D81EE11CF11C81149104A104B10482
:1007900029F7FF90EF90DF90CF90BF90AF909F90A0
:1007A0008F9008952FB7F8946091230270912402DE
:1007B00080912502909126022FBF0895CF93DF9359
:1007C000EC0188819981009711F00E94B60B198283
:1007D00018821D821C821B821A82DF91CF9108959C
:1007E000FC0180819181009711F00C94B60B089563
:1007F000FC0101900020E9F73197AF01481B590B2C
:10080000BC0183E392E00C941E018F929F92AF9201
:10081000BF920F931F93CF93DF93CDB7DEB7A1970E
:100820000FB6F894DEBF0FBECDBF19A2423008F458
:100830004AE08E010F5D1F4F842E912CB12CA12C0C
:10084000A50194010E94A70AE62FB901CA01EA3066
:10085000F4F4E05DD801EE938D01232B242B252B9E
:1008600079F790E080E0109719F0CD010E94F8032D
:10087000A1960FB6F894DEBF0FBECDBFDF91CF912A
:100880001F910F91BF90AF909F908F900895E95C5A
:10089000E1CFCF93DF930E94F803EC0181ED91E06B
:1008A0000E94F8038C0F9D1FDF91CF910895EF9266
:1008B000FF920F931F93CF93DF9300D000D0CDB75B
:1008C000DEB783E392E00E945A0183E392E00E9444
:1008D0005A018E010F5F1F4F78018A3341F0F801F2
:1008E00081938F0183E392E00E945A01F6CFC70102
:1008F0000E944C0A182F83E392E00E945A01805311
:10090000990B8230910520F4682F812F0E942B02D1
:1009100083E392E00E945A018A3011F08D30C1F7D2
:1009200083E392E00E946E018A3021F483E392E037
:100930000E945A010F900F900F900F90DF91CF916E
:100940001F910F91FF90EF9008950F931F93CF93F6
:10095000DF93EC0188819981009759F02A813B81CE
:100960002617370730F081E0DF91CF911F910F916B
:1009700008958B016F5F7F4F0E943F0C009759F0E5
:10098000998388831B830A832C813D81232B59F70C
:10099000FC011082E8CF80E0E7CFEF92FF920F9347
:1009A0001F93CF93DF93EC01FB01E080F180E11412
:1009B000F10411F10481158101151105A9F08C8153
:1009C0009D81080F191FB801CE010E94A50488233C
:1009D00099F0288139818C819D81B701820F931F05
:1009E0000E94050D1D830C83CE01DF91CF911F91D5
:1009F0000F91FF90EF900895CE010E94DE03F4CF97
:100A0000EF92FF920F931F93CF93DF93EC017B0143
:100A10008A01BA010E94A50481110BC0CE010E9477
:100A2000DE03CE01DF91CF911F910F91FF90EF90E8
:100A300008951D830C83B701888199810E94050D5B
:100A4000F0CF1F920F920FB60F9211242F933F9366
:100A50004F935F936F937F938F939F93AF93BF93C6
:100A6000EF93FF9383E392E00E949C01FF91EF914B
:100A7000BF91AF919F918F917F916F915F914F91B6
:100A80003F912F910F900FBE0F901F9018951F92BE
:100A90000F920FB60F9211242F938F939F93EF9382
:100AA000FF93E0914302F09144028081E09149027A
:100AB000F0914A0282FD1BC0908180914C028F5FB1
:100AC0008F7320914D02821741F0E0914C02F0E0CB
:100AD000ED5CFD4F958F80934C02FF91EF919F91BC
:100AE0008F912F910F900FBE0F901F9018958081BE
:100AF000F4CF1F920F920FB60F9211242F933F93B2
:100B00008F939F93AF93BF93809123029091240280
:100B1000A0912502B09126023091220223E0230FFA
:100B20002D3758F50196A11DB11D20932202809307
:100B3000230290932402A0932502B0932602809171
:100B4000270290912802A0912902B0912A020196D1
:100B5000A11DB11D8093270290932802A093290222
:100B6000B0932A02BF91AF919F918F913F912F91A6
:100B70000F900FBE0F901F90189526E8230F029636
:100B8000A11DB11DD2CF109236021092350288EE0F
:100B900093E0A0E0B0E08093370290933802A093F6
:100BA0003902B0933A0283EC91E09093340280933F
:100BB000330285EC90E09093400280933F0284ECF6
:100BC00090E0909342028093410280EC90E09093F9
:100BD00044028093430281EC90E09093460280931C
:100BE000450282EC90E0909348028093470286ECA5
:100BF00090E090934A028093490210924C02109226
:100C00004D0210924E0210924F021092D602109294
:100C1000D7021092D8021092D9021092DA021092E2
:100C2000DB021092DC021092DD021092DE021092C2
:100C3000DF021092E0021092E1021092E2021092A2
:100C4000E3021092E4021092E50210923703109230
:100C50003E031092450310924603109247031092F0
:100C6000480381E080934403809341031092420340
:100C700092E0909343038093360388E190E0909351
:100C80003B0380933A030E941A0B90934003809396
:100C90003F03009709F481C028E1FC0111922A95D5
:100CA000E9F788E090E0909339038093380386E079
:100CB00090E090933D0380933C0380913703882319
:100CC00041F061E086E00E94770260E086E00E94E9
:100CD0002B02EAEAF0E0E491F0E0EE0FFF1FE656A7
:100CE000FF4F8591949190934A0380934903ECE8D8
:100CF000F0E0E491E0934B0380E098E7A0E0B0E0FF
:100D00008093160390931703A0931803B0931903CD
:100D100080931A0390931B03A0931C03B0931D03AD
:100D200080E09CE3ACE3B0E080931E0390931F034C
:100D3000A0932003B0932103809322039093230375
:100D4000A0932403B0932503809326039093270355
:100D5000A0932803B093290380E090E0A8E7B0E0D7
:100D600080932A0390932B03A0932C03B0932D031D
:100D700080932E0390932F03A0933003B0933103FD
:100D800088E790E0A0E0B0E08093320390933303D3
:100D9000A0933403B0933503089510923B0310924F
:100DA0003A03109239031092380381CFCF93DF9327
:100DB000CDB7DEB76E970FB6F894DEBF0FBECDBFCE
:100DC000789484B5826084BD84B5816084BD85B526
:100DD000826085BD85B5816085BD80916E00816032
:100DE00080936E00109281008091810082608093D8
:100DF00081008091810081608093810080918000DA
:100E00008160809380008091B10084608093B10004
:100E10008091B00081608093B00080917A008460FE
:100E200080937A0080917A00826080937A0080912A
:100E30007A00816080937A0080917A008068809344
:100E40007A001092C10010921203109213031092B4
:100E50001403109215031092D2021092D302109232
:100E6000D4021092D5020E94D2036B017C014B0187
:100E70005C0128EB820E2BE0921EA11CB11C0E948B
:100E8000D2036C157D058E059F0528F08616970602
:100E9000A806B906A0F768EE73E080E090E00E9433
:100EA000A003E0914302F091440282E08083E0914C
:100EB0003F02F09140021082E0914102F091420223
:100EC00080E1808310924B02E0914702F09148024A
:100ED00086E08083E0914502F09146028081806146
:100EE0008083E0914502F091460280818860808392
:100EF000E0914502F0914602808180688083E09114
:100F00004502F091460280818F7D80830E94D2034A
:100F10006093D2027093D3028093D4029093D5024F
:100F200084ED91E00E94F8030E94D2036B017C01E2
:100F30004B015C013AE0830E911CA11CB11C0E9484
:100F4000D2036C157D058E059F0528F08616970641
:100F5000A806B906A0F781E08093E6020E94D203BA
:100F60006093D2027093D3028093D4029093D502FF
:100F700085EE91E00E94F80380913C0390913D033F
:100F800097FD08C061E00E94770260E080913C0319
:100F90000E942B0281E08093370360913E03603111
:100FA00029F120913F03309140036150C9F070E076
:100FB0008FEF9FE00E94000BF90140913A0350919E
:100FC0003B03CF01821B930B8417950760F440818C
:100FD000469FC001479F900D112490833196EDCF1D
:100FE00070E060E0E9CF80E180933E038E010F5F07
:100FF0001F4F34EF432E55245394612C712C0E94C3
:10100000D203672B682B692B09F4EDC00E94D20331
:10101000C0902F02D0903002E0903102F090320266
:101020006C157D058E059F0508F4DFC1C0902F0269
:10103000D0903002E0903102F09032029B01AC017E
:101040002C193D094E095F0969017A0138EEC31672
:1010500033E0D306E104F10408F4CDC060932F021D
:101060007093300280933102909332024092DE02FC
:101070005092DF026092E0027092E1021092E2026E
:101080001092E3021092E4021092E5028091D602DF
:101090009091D702A091D802B091D9028093DA0240
:1010A0009093DB02A093DC02B093DD020E94D20396
:1010B0006093D6027093D7028093D8029093D9029E
:1010C00083E392E00E946E01843611F40E9457047B
:1010D0000E94D2036093D2027093D3028093D40211
:1010E0009093D5020E94D2036B017C018CEE91E0BB
:1010F0000E94F8034AE061E070E080E090E00E9426
:10110000050483EF91E00E94F8034AE0C701B601AD
:101110000E94050485EF91E00E94F8038091D602B9
:101120009091D702A091D802B091D902A70196015F
:10113000281B390B4A0B5B0BCA01B9014AE00E941C
:10114000050485EF91E00E94F8036091D60270914A
:10115000D7028091D8029091D902C090DA02D09043
:10116000DB02E090DC02F090DD026C197D098E0953
:101170009F094AE00E94050487EF91E00E94F8036E
:101180000E94D2034AE00E94050489EF91E00E9488
:1011900049040E94D2034B015C017C016B0135E0E4
:1011A000C30ED11CE11CF11C0E94D2036815790505
:1011B0008A059B0528F0C616D706E806F906A0F7AB
:1011C00083E392E00E946E01843611F40E9457047A
:1011D0000E94D2036093D6027093D7028093D80204
:1011E0009093D90208C00E94D20362307105810534
:1011F000910508F00BCF80E092E00E9449048091B5
:101200000001882309F4DDC027E1222E21E0322EDF
:10121000B12CA12C80912D0290912E028435910544
:101220000CF01FC1F101819191911F0190932C024B
:1012300080932B021C8A1B8A1E8A1D8A188E1F8A85
:101240004AE0B8010E947D0AF80101900020E9F708
:101250003197AF01401B510BB801CE0143960E945C
:1012600000051A8E198E1C8E1B8E1E8E1D8E4AE056
:10127000B801C5010E946A0AF80101900020E9F74F
:101280003197AF01401B510BB801CE0149960E9426
:1012900000051A8219821C821B821E821D8246E072
:1012A00050E06BE072E0C8010E940005BE01675E7D
:1012B0007F4FC8010E94CD047C01FC01C480D58011
:1012C000F9E0CF0ED11CB6010E94A504882309F4D1
:1012D00095C0F701208131818481958162E172E0BE
:1012E000820F931F0E94050DF701D582C482BE01B3
:1012F0006D5E7F4FC7010E94CD04FC014481558182
:101300006081718183E392E00E941E0181ED91E092
:101310000E94F803C8010E94F003CE0149960E9482
:10132000F003CE0143960E94F003C0902B02D090B0
:101330002C02F4E1CF16D10408F06CC097E0892E9E
:1013400091E0992EF12CE12CF401219131914F0182
:1013500080913803909139032C153D0508F052C057
:10136000E816F90670F4F701EE0FFF1FEE0FFF1FEE
:10137000EA5EFC4F4081518162817381C7010E9406
:101380008800FFEFEF1AFF0A28E0E216F104E1F609
:101390000E94CD0264E670E080E090E00E94A0032D
:1013A00080912D0290912E02019690932E028093AF
:1013B0002D025FEFA51AB50A84E5A816B10409F05D
:1013C00029CF60E070E0CB010E94F2000E94CD02C4
:1013D000E0E0F0E0EF2B09F412CE0E9488018823B0
:1013E00009F40DCE0E9400000ACE60932F02709384
:1013F0003002809331029093320218CEC7010E94CE
:10140000DE0375CFE816F90608F0BBCF40E050E0E8
:10141000BA01B4CF34E1C31AD10868E770E080E0C4
:1014200090E04AE0C416D10420F060E070E088E764
:1014300090E00E94F2000E94CD0264E170E080E042
:1014400090E00E94A00360E070E0CB010E94F200F7
:101450000E94CD0264E170E080E090E00E94A00371
:1014600099CF1092000110922C0210922B028CE165
:1014700092E00E944904A5CF80913F0390914003E0
:101480000E94B60B80913C0390913D0397FD03C0F1
:1014900060E00C9477020895FC0188279927E8946E
:1014A00021912032E9F3293010F02E30C8F32B328D
:1014B00041F02D3239F4689404C00E94750A820FFD
:1014C000911D219120532A30C0F31EF490958195EF
:1014D0009F4F0895BB274A3031F4992322F4BDE28F
:1014E000909581959F4F0C947E0A7AE0979F902D5E
:1014F000879F802D910D11240895BB27FB0155274F
:10150000AA27880F991FAA1FA41710F0A41B839560
:101510005051B9F7A05DAA3308F0A95DA1930097D7
:1015200079F7B111B1931192CB010C94970ADC01B8
:10153000FC01672F71917723E1F7329704C07C910A
:101540006D9370836291AE17BF07C8F30895A1E24F
:101550001A2EAA1BBB1BFD010DC0AA1FBB1FEE1F2D
:10156000FF1FA217B307E407F50720F0A21BB30B78
:10157000E40BF50B661F771F881F991F1A9469F7F4
:1015800060957095809590959B01AC01BD01CF0150
:1015900008952F923F924F925F926F927F928F9217
:1015A0009F92AF92BF92CF92DF92EF92FF920F93F2
:1015B0001F93CF93DF93CDB7DEB7CA1BDB0B0FB6FC
:1015C000F894DEBF0FBECDBF09942A8839884888B9
:1015D0005F846E847D848C849B84AA84B984C8844F
:1015E000DF80EE80FD800C811B81AA81B981CE0F46
:1015F000D11D0FB6F894DEBF0FBECDBFED0108952B
:10160000AA1BBB1B51E107C0AA1FBB1FA617B70728
:1016100010F0A61BB70B881F991F5A95A9F7809544
:101620009095BC01CD010895EE0FFF1F0590F49138
:10163000E02D09940F931F93CF93DF938230910590
:1016400010F482E090E0E0914E03F0914F0330E01F
:1016500020E0B0E0A0E0309799F42115310509F4BD
:101660004AC0281B390B24303105D8F58A819B816B
:101670006115710589F1FB0193838283FE0111C01D
:10168000408151810281138148175907E0F04817C2
:10169000590799F4109761F012960C9312971396CC
:1016A0001C933296CF01DF91CF911F910F91089536
:1016B00000934E0310934F03F4CF2115310551F0E1
:1016C0004217530738F0A901DB019A01BD01DF0180
:1016D000F801C1CFEF01F9CF90934F0380934E03F0
:1016E000CDCFFE01E20FF31F819391932250310978
:1016F00039832883D7CF20914C0330914D03232B7E
:1017000041F4209103013091040130934D03209363
:101710004C0320910101309102012115310541F462
:101720002DB73EB74091050150910601241B350BA2
:10173000E0914C03F0914D03E217F307A0F42E1B48
:101740003F0B2817390778F0AC014E5F5F4F241725
:10175000350748F04E0F5F1F50934D0340934C03E5
:10176000819391939FCFF0E0E0E09CCFCF93DF9304
:101770000097E9F0FC01329713821282A0914E0388
:10178000B0914F03ED0130E020E01097A1F42081EB
:101790003181820F931F20914C0330914D03281704
:1017A000390709F061C0F0934D03E0934C03DF91DA
:1017B000CF910895EA01CE17DF07E8F54A815B81F2
:1017C0009E0141155105B1F7E901FB83EA83499177
:1017D0005991C40FD51FEC17FD0761F480819181E9
:1017E0000296840F951FE9019983888382819381F2
:1017F0009B838A83F0E0E0E012968D919C91139791
:101800000097B9F52D913C911197CD010296820F69
:10181000931F20914C0330914D032817390739F657
:10182000309751F510924F0310924E03B0934D0331
:10183000A0934C03BCCFD383C28340815181840FDA
:10184000951FC817D90761F44E5F5F4F8881998152
:10185000480F591F518340838A819B8193838283E0
:101860002115310509F0B0CFF0934F03E0934E03FB
:101870009ECFFD01DC01C0CF13821282D7CFB0E032
:10188000A0E0E5E4FCE00C94CB0A8C01009751F455
:10189000CB010E941A0B8C01C801CDB7DEB7E0E185
:1018A0000C94E70AFC01E60FF71F9C012250310956
:1018B000E217F30708F49DC0D901CD91DC9111978F
:1018C000C617D70798F0C530D10530F3CE0104977D
:1018D0008617970708F3C61BD70B2297C193D1939E
:1018E0006D937C93CF010E94B60BD6CF5B01AC1AEF
:1018F000BD0A4C018C0E9D1EA0914E03B0914F036A
:10190000512C412CF12CE12C109731F580914C0396
:1019100090914D038815990509F05CC0461657064D
:1019200008F058C08091010190910201009741F4A4
:101930008DB79EB74091050150910601841B950B10
:10194000E817F90708F055C0F0934D03E0934C03F6
:10195000F90171836083A0CF8D919C9111971296AC
:101960006C90129713967C901397A815B90559F5AA
:101970006C0142E0C40ED11CCA14DB0420F1AC019E
:101980004A195B09DA011296159780F06282738218
:1019900051834083D9016D937C93E114F10471F07C
:1019A000D7011396FC93EE93129776CF22968C0F65
:1019B0009D1FF90191838083F301EFCFF0934F03D3
:1019C000E0934E0369CF4816590608F42C017D01B7
:1019D000D3019ACFCB010E941A0B7C01009749F0EA
:1019E000AE01B8010E94FC0CC8010E94B60B870131
:1019F00053CF10E000E050CFFB01DC0102C00190AA
:101A00000D9241505040D8F70895FB01DC01019040
:101A10000D920020E1F7089510E0CDE5D0E004C07C
:101A2000FE010E94140B2196CE35D107C9F7F89418
:021A3000FFCFE6
:101A3200010000500380000A000B000C000D000E94
:101A4200000F00100014000B000C000D000E000F20
:101A52000010001100120013000F000D000C000B0B
:101A6200000B000B000D000F0010001900190019E7
:101A7200001900190019001900190019001900199C
:101A820000190019001900190019000C000D000EB0
:101A9200000E000E000E000E000E000E000E000ED4
:101AA200000B000B000B000D000F0010000B000BD1
:101AB200000B000D000F0010002300230023002361
:101AC2000023002300230023002300230023001906
:101AD2000019001900190019000C000D000E000E6B
:101AE200000E000E000E000E000E000E000E000092
:101AF200000000BE011E014B010B027C015A016E67
:101B0200010D0A00564D4450565F317C315F564DEF
:101B12004450560A00564D4450525F00564D4450B0
:101B2200455F003A323A007C005F564D4450450012
:101B32007374617274206C6F6F7000697465723AAD
:101B42002000206967667265713A200062726561E1
:021B52006B0026
:00000001FF
